:100000000C9434000C9469000C9469000C94690001
:100010000C9469000C9469000C9469000C946900BC
:100020000C9469000C9469000C9469000C946900AC
:100030000C9469000C9469000C9469000C9469009C
:100040000C9469000C9469000C9469000C9469008C
:100050000C9469000C9469000C9469000C9469007C
:100060000C9469000C94690011241FBECFEFD8E0F6
:10007000DEBFCDBF0E9440000C945E00F894FFCF1D
:1000800081E084B987E690E09093C5008093C40036
:100090001092C00080E18093C10086E28093C2008C
:1000A0008091C0008823E4F78091C600883C21F449
:0C00B00085B1816085B9F4CF15B8F2CF9E
:1000BC00EC010E946E000E946D00CE010E946F0048
:0600CC00CE010E946B0052
:0400D2000C9400008A
:0400D6000E943E0046
:0200DA00089587
:0200DC00089585
:0200DE00089583
:00000001FF
