:100000000C9438000C949D000C949D000C949D0061
:100010000C949D000C949D000C949D000C949D00EC
:100020000C949D000C949D000C949D000C949D00DC
:100030000C949D000C949D000C949D000C949D00CC
:100040000C949D000C949D000C949D000C949D00BC
:100050000C949D000C949D000C949D000C949D00AC
:100060000C949D000C949D000100010300014800C8
:1000700011241FBECFEFD8E0DEBFCDBFE8E6F0E031
:1000800040E017C0B591A59135912591059107FDE7
:100090000CC095918591EF01F92FE82F05900D92F5
:1000A000A217B307D9F7FE0104C01D92A217B30728
:1000B000E1F7EF36F40731F70E9462000C949200EA
:0400C000F894FFCFE2
:1000C40087E690E09093C5008093C4001092C0002E
:1000D40088E08093C10086E28093C20063E070E010
:1000E40080E091E00E947D008FE39CE90197F1F7A5
:0600F40000C00000F3CF84
:1000FA00FC0120E030E009C09091C00095FFFCCFE0
:10010A0081918093C6002F5F3F4F26173707A4F3CC
:0A011A008091C00085FFFCCF08951E
:10012400EC010E94A2000E94A100CE010E94A30043
:06013400CE010E949F00B5
:04013A000C94000021
:04013E000E946000BB
:0201420008951E
:0201440008951C
:0201460008951A
:03014800C8643256
:00000001FF
