:100000000C9434000C945D000C945D000C945D0025
:100010000C945D000C945D000C945D000C945D00EC
:100020000C945D000C945D000C945D000C945D00DC
:100030000C945D000C945D000C945D000C945D00CC
:100040000C945D000C945D000C945D000C945D00BC
:100050000C945D000C945D000C945D000C945D00AC
:100060000C945D000C945D0011241FBECFEFD8E00E
:10007000DEBFCDBF0E9440000C945200F894FFCF29
:1000800087E690E09093C5008093C4001092C00072
:1000900088E08093C10086E28093C2008AE5809365
:0400A000C600FCCFCB
:1000A400EC010E9462000E946100CE010E94630084
:0600B400CE010E945F0076
:0400BA000C940000A2
:0400BE000E943E005E
:0200C20008959F
:0200C40008959D
:0200C60008959B
:00000001FF
