:100000000C9438000C9495000C9495000C94950079
:100010000C9495000C9495000C9495000C9495000C
:100020000C9495000C9495000C9495000C949500FC
:100030000C9495000C9495000C9495000C949500EC
:100040000C9495000C9495000C9495000C949500DC
:100050000C9495000C9495000C9495000C949500CC
:100060000C9495000C9495000100010400013800E7
:1000700011241FBECFEFD8E0DEBFCDBFE8E6F0E031
:1000800040E017C0B591A59135912591059107FDE7
:100090000CC095918591EF01F92FE82F05900D92F5
:1000A000A217B307D9F7FE0104C01D92A217B30728
:1000B000E1F7EF36F40731F70E9462000C948A00F2
:0400C000F894FFCFE2
:1000C40087E690E09093C5008093C4001092C0002E
:1000D40088E08093C10086E28093C20080E090E0D3
:1000E4000DC0FC01E050FF4F20812093C600EFE3D8
:1000F400FFE13197F1F700C00000019684309105CB
:1001040084F38FE39CE90197F1F700C00000E6CF88
:10011400EC010E949A000E949900CE010E949B006B
:06012400CE010E949700CD
:04012A000C94000031
:04012E000E946000CB
:0201320008952E
:0201340008952C
:0201360008952A
:04013800C864325E07
:00000001FF
