:100000000C9434000C9478000C9478000C947800D4
:100010000C9478000C9478000C9478000C94780080
:100020000C9478000C9478000C9478000C94780070
:100030000C9478000C9478000C9478000C94780060
:100040000C9478000C9478000C9478000C94780050
:100050000C9478000C9478000C9478000C94780040
:100060000C9478000C94780011241FBECFEFD8E0D8
:10007000DEBFCDBF0E9440000C946D00F894FFCF0E
:1000800087E480937C0087E880937A0010927B005D
:1000900010927E0087E084B9EAE7F0E08081806416
:1000A000808380917A0086FDFCCF809178009091CA
:1000B000790015B8863622E0920720F485B1816078
:1000C00085B9EACF8B30934020F085B1846085B943
:0A00D000E3CF85B1826085B9DFCF70
:1000DA00EC010E947D000E947C00CE010E947E00FD
:0600EA00CE010E947A0025
:0400F0000C9400006C
:0400F4000E943E0028
:0200F800089569
:0200FA00089567
:0200FC00089565
:00000001FF
