:100000000C9434000C948A000C948A000C948A009E
:100010000C948A000C948A000C948A000C948A0038
:100020000C948A000C948A000C948A000C948A0028
:100030000C948A000C948A000C948A000C948A0018
:100040000C948A000C948A000C948A000C948A0008
:100050000C948A000C948A000C948A000C948A00F8
:100060000C948A000C948A0011241FBECFEFD8E0B4
:10007000DEBFCDBF0E945D000C947600F894FFCFE8
:10008000ECEBF0E09081946A90839091BC0099230E
:10009000E4F7880F8093BB00ECEBF0E0808184688C
:1000A00080838091BC008823E4F78091B900ECEB59
:0A00B000F0E08081846980830895E8
:1000BA000E9481002FEF83ED90E321508040904011
:1000CA00E1F700C0000061E685E50E9440002FEFDD
:1000DA0083ED90E3215080409040E1F700C000009A
:0200EA00F2CF53
:1000EC00EC010E948F000E948E00CE010E949000B5
:0600FC00CE010E948C0001
:100102008CE08093B8001092B90084E08093BC0028
:0201120008954E
:040114000C94000047
:040118000E943E0003
:02011C00089544
:02011E00089542
:02012000089540
:00000001FF
