:100000000C9434000C944E000C944E000C944E0052
:100010000C944E000C944E000C944E000C944E0028
:100020000C944E000C944E000C944E000C944E0018
:100030000C944E000C944E000C944E000C944E0008
:100040000C944E000C944E000C944E000C944E00F8
:100050000C944E000C944E000C944E000C944E00E8
:100060000C944E000C944E0011241FBECFEFD8E02C
:10007000DEBFCDBF0E944B000C944000F894FFCF30
:10008000EC010E9453000E945200CE010E945400D5
:06009000CE010E945000A9
:0600960080E090E00895F7
:04009C000C940000C0
:0400A0000E943E007C
:0200A4000895BD
:0200A6000895BB
:0200A8000895B9
:00000001FF
