:100000000C9434000C9469000C9469000C94690001
:100010000C9469000C9469000C9469000C946900BC
:100020000C9469000C9469000C9469000C946900AC
:100030000C9469000C9469000C9469000C9469009C
:100040000C9440000C9469000C9469000C946900B5
:100050000C9469000C9469000C9469000C9469007C
:100060000C9469000C94690011241FBECFEFD8E0F6
:10007000DEBFCDBF0E9452000C945E00F894FFCF0B
:100080001F920F920FB60F9211248F939F9395B1E9
:1000900081E0892785B99F918F910F900FBE0F90B6
:0400A0001F90189500
:1000A40081E084B992E094BD9AE095BD99EF97BD43
:0800B40080936E007894FFCFE9
:1000BC00EC010E946E000E946D00CE010E946F0048
:0600CC00CE010E946B0052
:0400D2000C9400008A
:0400D6000E943E0046
:0200DA00089587
:0200DC00089585
:0200DE00089583
:00000001FF
