:100000000C9434000C9478000C9478000C947800D4
:100010000C9478000C9478000C9478000C94780080
:100020000C9478000C9478000C9478000C94780070
:100030000C9478000C9478000C9440000C944F00C1
:100040000C9478000C9478000C9478000C94780050
:100050000C9478000C9478000C9478000C94780040
:100060000C9478000C94780011241FBECFEFD8E0D8
:10007000DEBFCDBF0E945E000C946D00F894FFCFF0
:100080001F920F920FB60F9211248F9385B181604A
:0E00900085B98F910F900FBE0F901F9018959D
:10009E001F920F920FB60F9211248F9385B18E7F00
:0E00AE0085B98F910F900FBE0F901F9018957F
:1000BC0081E084B982E084BD8AE085BD89EF87BD8B
:0E00CC0083E688BD86E080936E007894FFCFB7
:1000DA00EC010E947D000E947C00CE010E947E00FD
:0600EA00CE010E947A0025
:0400F0000C9400006C
:0400F4000E943E0028
:0200F800089569
:0200FA00089567
:0200FC00089565
:00000001FF
