:100000000C943A000C948F000C948F000C948F0089
:100010000C948F000C948F000C948F000C948F0024
:100020000C948F000C948F000C948F000C948F0014
:100030000C948F000C948F000C948F000C948F0004
:100040000C948F000C948F000C948F000C948F00F4
:100050000C948F000C948F000C948F000C948F00E4
:100060000C948F000C948F000100010100012C0101
:100070000101028011241FBECFEFD8E0DEBFCDBF4B
:10008000E8E6F0E040E017C0B591A59135912591E3
:10009000059107FD0CC095918591EF01F92FE82F8F
:1000A00005900D92A217B307D9F7FE0104C01D9267
:1000B000A217B307E1F7E437F40731F70E946400B1
:0800C0000C948400F894FFCFBA
:1000C80080E68AB983EA84BD82E085BD809101011A
:1000D80087BD8091000188BD2FEF80E792E0215015
:1000E80080409040E1F700C00000809101018E5FE0
:1000F8008093010180910001815080930001E6CF37
:10010800EC010E9494000E949300CE010E94950089
:06011800CE010E949100DF
:04011E000C9400003D
:040122000E946200D5
:0201260008953A
:02012800089538
:02012A00089536
:01012C00FFD3
:00000001FF
