:100000000C9438000C94A3000C94A3000C94A3004F
:100010000C94A3000C94A3000C94A3000C94A300D4
:100020000C94A3000C94A3000C94A3000C94A300C4
:100030000C94A3000C94A3000C94A3000C94A300B4
:100040000C94A3000C94A3000C94A3000C94A300A4
:100050000C94A3000C94A3000C94A3000C94A30094
:100060000C94A3000C94A3000100010100015400B2
:1000700011241FBECFEFD8E0DEBFCDBFE8E6F0E031
:1000800040E017C0B591A59135912591059107FDE7
:100090000CC095918591EF01F92FE82F05900D92F5
:1000A000A217B307D9F7FE0104C01D92A217B30728
:1000B000E1F7EF36F40731F70E9462000C949800E4
:0400C000F894FFCFE2
:1000C4008AB180628AB987B18C7F87B983E284BDA3
:1000D4008AE085BD83E687BD8091000188BD3099A3
:1000E40011C080910001833620F48F5F809300015A
:1000F40088BD2FEF81EE94E0215080409040E1F7DD
:1001040000C000003199EBCF80910001882321F0D9
:1001140081508093000188BD2FEF81EE94E021503F
:0C01240080409040E1F700C00000D9CFFF
:10013000EC010E94A8000E94A700CE010E94A90025
:06014000CE010E94A500A3
:040146000C94000015
:04014A000E946000AF
:02014E00089512
:02015000089510
:0201520008950E
:010154003278
:00000001FF
