:100000000C9437000C948E000C9461000C94C0008A
:100010000C94C0000C94C0000C94C0000C94C00060
:100020000C94C0000C94C0000C94C0000C94C00050
:100030000C94C0000C94C0000C94C0000C94C00040
:100040000C94C0000C94C0000C94C0000C94C00030
:100050000C94C0000C94C0000C94C0000C94C00020
:100060000C94C0000C94C000010001028000112417
:100070001FBECFEFD8E0DEBFCDBFE8E6F0E040E046
:1000800017C0B591A59135912591059107FD0CC03B
:1000900095918591EF01F92FE82F05900D92A21708
:1000A000B307D9F7FE0104C01D92A217B307E1F709
:1000B000ED36F40731F70E94B7000C94AC00F894C9
:0200C000FFCF70
:1000C2001F920F920FB60F9211242F938F939F932B
:1000D200809100019091010101969093010180931A
:1000E2000001039791F498B181E0892788B92FEF35
:1000F20081EE94E0215080409040E1F700C0000082
:1001020018B810920101109200019F918F912F91C6
:0A0112000F900FBE0F901F9018957C
:10011C001F920F920FB60F9211242F938F939F93D0
:10012C0098B181E0892788B92FEF81EE94E02150B6
:10013C0080409040E1F700C0000018B89F918F916B
:0C014C002F910F900FBE0F901F90189580
:10015800EC010E94C5000E94C400CE010E94C600A6
:06016800CE010E94C2005E
:10016E0081E087B98DE08093690083E08DBB789440
:02017E00FFCFB1
:040180000C940000DB
:040184000E945F0076
:020188000895D8
:02018A000895D6
:02018C000895D4
:00000001FF
