:100000000C9437000C9461000C9475000C94AA00B9
:100010000C94AA000C9489000C94AA000C94AA00D9
:100020000C94AA000C94AA000C94AA000C94AA00A8
:100030000C94AA000C94AA000C94AA000C94AA0098
:100040000C94AA000C94AA000C94AA000C94AA0088
:100050000C94AA000C94AA000C94AA000C94AA0078
:100060000C94AA000C94AA00010001028000112443
:100070001FBECFEFD8E0DEBFCDBFE8E6F0E040E046
:1000800017C0B591A59135912591059107FD0CC03B
:1000900095918591EF01F92FE82F05900D92A21708
:1000A000B307D9F7FE0104C01D92A217B307E1F709
:1000B000ED36F40731F70E94A1000C949600F894F5
:0200C000FFCF70
:1000C2001F920F920FB60F9211248F939F9381E08C
:1000D20090E090930101809300019F918F910F9086
:0800E2000FBE0F901F9018954E
:1000EA001F920F920FB60F9211248F939F9381E064
:1000FA0090E090930101809300019F918F910F905E
:08010A000FBE0F901F90189525
:100112001F920F920FB60F9211248F9389B18F9174
:0A0122000F900FBE0F901F9018956C
:10012C00EC010E94AF000E94AE00CE010E94B00014
:06013C00CE010E94AC00A0
:1001420081E087B98DE08093690083E08DBB78946C
:02015200FFCFDD
:040154000C94000007
:040158000E945F00A2
:02015C00089504
:02015E00089502
:02016000089500
:00000001FF
