:100000000C9437000C94F8000C94F8000C94F80051
:100010000C94F8000C94F8000C94F8000C94F80080
:100020000C94F8000C94F8000C94F8000C94F80070
:100030000C94F8000C94F8000C94F8000C94F80060
:100040000C94F8000C94F8000C94F8000C94F80050
:100050000C94F8000C9461000C94F8000C94F800D7
:100060000C94F8000C94F8000100010280001124A7
:100070001FBECFEFD8E0DEBFCDBFE8E6F0E040E046
:1000800017C0B591A59135912591059107FD0CC03B
:1000900095918591EF01F92FE82F05900D92A21708
:1000A000B307D9F7FE0104C01D92A217B307E1F709
:1000B000ED36F40731F70E9495000C94ED00F894AA
:0200C000FFCF70
:1000C2001F920F920FB60F9211242F933F934F93CB
:1000D2005F936F937F938F939F93AF93BF93EF93AE
:1000E200FF932091780030917900ACE4B4E00E9453
:1000F200DE0020E038E240E050E00E94BC00309395
:10010200010120930001FF91EF91BF91AF919F9167
:100112008F917F916F915F914F913F912F910F90AE
:080122000FBE0F901F9018950D
:10012A0084B1806184B985B1806185B985EC809399
:10013A007C008FEA80937A0085E080937B0080E2DE
:10014A0080937E00109280008DE08093810081E48C
:10015A009FE0909389008093880090938B0080930E
:0E016A008A0010928500109284007894FFCFD6
:10017800A1E21A2EAA1BBB1BFD010DC0AA1FBB1FA3
:10018800EE1FFF1FA217B307E407F50720F0A21B15
:10019800B30BE40BF50B661F771F881F991F1A9482
:1001A80069F760957095809590959B01AC01BD01AC
:0401B800CF010895D6
:1001BC00A29FB001B39FC001A39F700D811D11249C
:0E01CC00911DB29F700D811D1124911D08958B
:1001DA00EC010E94FD000E94FC00CE010E94FE007C
:0601EA00CE010E94FA00A4
:0401F0000C9400006B
:0401F4000E945F0006
:0201F800089568
:0201FA00089566
:0201FC00089564
:00000001FF
