:100000000C9434000C9462000C9462000C94620016
:100010000C9462000C9462000C9462000C946200D8
:100020000C9462000C9462000C9462000C946200C8
:100030000C9462000C9462000C9462000C946200B8
:100040000C9462000C9462000C9462000C946200A8
:100050000C9462000C9462000C9462000C94620098
:100060000C9462000C94620011241FBECFEFD8E004
:10007000DEBFCDBF0E9464000C945700F894FFCF00
:1000800084B18F6384B981E0880F803409F481E002
:100090004B9B02C085B901C015B82FEF33EC99E036
:0E00A000215030409040E1F700C00000EDCF4D
:1000AE00EC010E9469000E946800CE010E946A0065
:0600BE00CE010E94660065
:0400C4000C94000098
:0400C8000E94400052
:0400CC000E943E0050
:0200D000089591
:0200D20008958F
:0200D40008958D
:00000001FF
