:100000000C9434000C9479000C9479000C947900D1
:100010000C9479000C9479000C9479000C9479007C
:100020000C9479000C9479000C9479000C9479006C
:100030000C9479000C9479000C9479000C9479005C
:100040000C9479000C9479000C9479000C9479004C
:100050000C9479000C9479000C9479000C9479003C
:100060000C9479000C94790011241FBECFEFD8E0D6
:10007000DEBFCDBF0E947B000C946E00F894FFCFD2
:1000800087B1846087B98AB188708AB94B9B19C0DF
:1000900088B1846088B92FEF85EA9EE021508040C6
:1000A0009040E1F700C0000088B18B7F88B92FEF46
:1000B0008DE292E2215080409040E1F700C00000C4
:1000C000E5CF88B18B7F88B92FEF85EA9EE021507C
:0C00D00080409040E1F700C00000D8CF55
:1000DC00EC010E9480000E947F00CE010E948100F2
:0600EC00CE010E947D0020
:0400F2000C9400006A
:0400F6000E94400024
:0400FA000E943E0022
:0200FE00089563
:02010000089560
:0201020008955E
:00000001FF
